:0300000002042BCC
:0C042B00787FE4F6D8FD7581560204725B
:10073D005389F0438901C2A9E4FDFCC3ED9FEC9EF2
:10074D005016758CFC758A2CC28DD28C308DFDC2E5
:08075D008C0DBD00010C80E3CE
:010765002271
:1007660053890F438910C2ABE4FDFCC3ED9FEC9E99
:100776005016758DFC758B2CC28FD28E308FFDC2B4
:080786008E0DBD00010C80E3A3
:01078E002248
:1007D400E4FDFCC3ED9FEC9E5016E4FBEBC394FADE
:1007E4007480948050030B80F30DBD00010C80E3F2
:0107F40022E2
:10083000E4FDFCC3ED9FEC9E50070DBD00010C8054
:01084000F2C5
:010841002294
:100618000249000002440000024B000001430002AE
:100628003F0000023D0000024100000346000000B8
:10080A00D203D2047F017E0012070BD2B61208422D
:03081A00020003D6
:1005340030022C12034AD3940074809480400474D3
:10054400FF804A900001120363D394007480948066
:10055400405074091203E590000174FF0203B212C3
:10056400034AFF7E00C3940974809480500890006D
:10057400011203636015C3EF9408EE648094805005
:100584000F9000011203636401700574010203906B
:10059400900001120363700A1203E5900001041233
:0305A40003F72238
:10000E007B007A007949D20212067BE54160030239
:10001E00025FE5421460251470030200B0240260F2
:10002E000302025F12081DE4F53FF540F544F54565
:10003E00F54BF54CF543F541754201227D647F0188
:10004E007E001207B2400B7B007A007949C2021281
:10005E0005347D647F027E001207B2400B7B007A6E
:10006E00007949D2021205347D647F037E001207A7
:10007E00B2500302025F30A50302025F7B007A00DA
:10008E0079497D027C001204B78F43EF70030202A0
:10009E005FC2B17541007542027B007A007946025B
:1000AE00026020A50B7D647F037E001207B250060E
:1000BE0012081DC2B522D2B5D2B6C2B1AD40AC3F08
:1000CE00AF431205A7753D008F3EE53D600302026A
:1000DE005FE53EB40900400302025F9000F0F8288D
:1000EE00287302010B02011A02014202015502019C
:1000FE007502019D02020F02023602024B12081D0A
:10010E00C2B6E4F549F54AF541F54222C2B40545B9
:10011E00E54570020544C3940AE54464809480501A
:10012E000302025FD2B4E4F544F5450540E54070A4
:10013E0035053F22C2B330A60302025FD2B305409B
:10014E00E5407002053F22E54670090540E5407026
:10015E0002053F22C2B230B00302025FD2B20540A6
:10016E00E5407002053F22C2860545E54570020551
:10017E0044C3940AE54464809480500302025FD223
:10018E0086E4F544F5450540E5407002053F22C37F
:10019E00E54C9404E54B648094805015D2877F0A19
:1001AE007E001207D4C286054CE54C702F054B809D
:1001BE002BC3E54C9408E54B648094805015D28691
:1001CE007F0A7E001207D4C287054CE54C700D05E0
:1001DE004B8009E4F54BF54CD287C2860545E545C3
:1001EE0070020544C39410E544648094804062D24A
:1001FE0087D286E4F544F5450540E5407053053F4A
:10020E0022E54770090540E5407046053F22C3E5EB
:10021E004C940AE54B64809480500BC285054CE5E6
:10022E004C702E054B22D285C28420A724D284E4A2
:10023E00F54BF54C0540E5407017053F22E548703B
:10024E00090540E540700A053F22E4F548F53FF503
:02025E0040223C
:100638000A12C0F9A4B0999282F880900A083F067D
:080648005B4F666D7D077F6FBB
:1007F5003003047412800274082FF8E6F5907F0226
:050805007E0002083036
:10070B00EF64014E7013300308D2A0300423C2A152
:10071B0022C2A030041BD2A122EF64024E70123011
:10072B000308D2A130040AC2A022C2A1300402D213
:02073B00A022FA
:06067B008B4D8A4E894FF1
:10068100E4F550F551E5512401FFE43550FEA20295
:100691009203D20412070BAB4DAA4EA94F8551828A
:1006A100855083120363FFA20292031207F57F3282
:1006B1007E001207D40551E55170020550C3940222
:0806C100E5506480948040BD07
:0106C900220E
:0A04B7008B4D8A4E894F8C508D51F9
:1004C100E4F552F555755601F553F554C3E55495C8
:1004D10051E5506480F8E5536480985051E4FBFA8B
:1004E100C3EB9554E5536480F8EA6480985016AEE6
:1004F10055AF567C007D0A1204198E558F560BBBE1
:1005010000010A80DBAB4DAA4EA94F855482855369
:1005110083120363FFE5568FF0A42552F5527555FA
:10052100007556010554E55470A20553809EAF52E3
:020531007E004A
:0105330022A5
:06065000011D00011C0069
:10084200438901758AB0758C3CD2AFD2A9C28DD2D0
:020852008C22F6
:04000300438701220C
:03000B000206CA20
:1006CA00C0E0C0F0C083C082C0D075D000C000C0F6
:1006DA0001C002C003C004C005C006C007758AB0C5
:1006EA00758C3C12000ED007D006D005D004D0037A
:1006FA00D002D001D000D0D0D082D083D0F0D0E0C8
:01070A0032BC
:0607B2008E4D8F4E8D4FAD
:1007B800D20212078F4012AF4F7E001207D4AF4EFD
:0B07C800AE4D12078F4002C202A202D9
:0107D3002203
:10078F00EF64014E7005D2A2A2A222EF64024E7056
:10079F0005D2A3A2A322EF64034E7005D2A4A2A494
:0307AF0022C32240
:1006560003320608000929010203040507060800FB
:1006660008210102030507060800083501020304F4
:04067600070608006B
:10081D00D285D286D287D284D2B1D2B2D2B3D2B45B
:03082D00D2B5221F
:10026000EFFD7C006406600AED640E6005ED64122B
:100270007009E41203E5900001805DED64054C60B7
:100280000CED640D4C6006ED64114C700D740112A0
:1002900003E5F582758300E4803EED64014C601255
:1002A000ED64044C600CED640C4C6006ED64104C85
:1002B000700AE41203E590000104801CED64034C15
:1002C000600CED640B4C6006ED640F4C7013740110
:1002D0001203E5F5827583001203F7900002E480B3
:1002E00065ED640A4C70101203E59000011203F7EB
:1002F0009000027401804FED64094C7014041203E5
:10030000E5F582758300E41203F790000274018022
:1003100035ED64024C6006ED64084C7012E4120383
:10032000E5900001041203F790000274018017EDBC
:1003300064074C7014041203E5F582758300120300
:0A034000F790000274011203F72287
:1005A700EFFB64016005EB640270047432805DEF59
:1005B700FB64036023EB6404601EEB64056019EBC6
:1005C70064066014EB6407600FEB6408600AEB6471
:1005D700096005EB640A700474298030EFFB640B33
:1005E700600FEB640C600AEB640D6005EB640E7042
:1005F7000474218017EFFB640F600FEB6410600A2F
:10060700EB64116005EB6412700674352DF8E6FF94
:0106170022C0
:1004370002080AE493A3F8E493A34003F68001F2C9
:1004470008DFF48029E493A3F85407240CC8C333C6
:10045700C4540F4420C8834004F456800146F6DF95
:10046700E4800B0102040810204080900618E47E07
:10047700019360BCA3FF543F30E509541FFEE4938A
:10048700A360010ECF54C025E060A840B8E493A351
:10049700FAE493A3F8E493A3C8C582C8CAC583CA7C
:1004A700F0A3C8C582C8CAC583CADFE9DEE780BE34
:01067A00007F
:10034A00BB010689828A83E0225002E722BBFE02B1
:09035A00E32289828A83E49322E4
:10036300BB010CE58229F582E5833AF583E022504F
:1003730006E92582F8E622BBFE06E92582F8E22299
:0D038300E58229F582E5833AF583E49322B3
:10039000BB010989828A83F8E028F022500327F7FD
:1003A00022BBFE05F8E328F3228A838982F8E493CE
:0203B000282201
:1003B200BB010FF8E58229F582E5833AF583E0284F
:1003C200F0225009C58229F8E58226F622BBFE09F1
:1003D200C58229F8E22582F222F8EA2583F583E92B
:0303E2009328223B
:1003E500BB010689828A83F0225002F722BBFE01F7
:0203F500F322F1
:1003F700F8BB010DE58229F582E5833AF583E8F03C
:10040700225006E92582C8F622BBFE05E92582C8E7
:02041700F222CF
:10041900EF8DF0A4A8F0CF8CF0A428CE8DF0A42EF7
:02042900FE22B1
:00000001FF
